:100000000C942A000C9447000C9447000C94470071
:100010000C9447000C9447000C9447000C94470044
:100020000C9447000C9447000C9447000C94470034
:100030000C9447000C9447000C9447000C94470024
:100040000C9447000C9447000C9447000C94470014
:100050000C94470011241FBECFE5D8E0DEBFCDBF12
:1000600010E0A0E6B0E0E6E2F9E002C005900D92F3
:10007000AA3BB107D9F720E0AAEBB0E001C01D927E
:10008000AB3BB207E1F70E9405020C9491040C947B
:100090000000C198C2988BBBC39A8FEC97E0019780
:1000A000F1F700C00000C3988FE99FE00197F1F7D6
:1000B00000C000000895C19AC2988BBBC39A8FEC10
:1000C00097E00197F1F700C00000C3988FE99FE027
:1000D0000197F1F700C0000008958FEF8ABB87B346
:1000E0008E6087BB8FE39CE90197F1F700C00000A9
:1000F00088E30E9449008CE00E94490081E00E9450
:1001000049000895CF93DF93EC018881882331F073
:1001100021960E945B0089918111FBCFDF91CF91E5
:10012000089581E00E9449008FE99FE00197F1F76F
:1001300000C000000895EF92FF920F931F93CF939A
:10014000DF93CDB7DEB760970FB6F894DEBF0FBE72
:10015000CDBF8FE081BB8FEF82BB60E070E0A1E09C
:10016000B0E082B37B01FD01062E02C0EE0FFF1F3F
:100170000A94E2F79E2F9095892382BB849B11C03D
:1001800021E030E080B38901A9014C5F5F4F90E02E
:10019000042E02C0959587950A94E2F780FD32C03F
:1001A00004C044E050E000E010E080E1E0E6F0E070
:1001B000DE01119601900D928A95E1F7000F111F53
:1001C000000F111F61E070E06C0F7D1F060F171FFD
:1001D000F801EE0DFF1D808121E030E0F90102C041
:1001E000EE0FFF1F4A95E2F7AF0120B330E0242362
:1001F0003523232BD1F3EFE3FCE93197F1F700C06E
:10020000000010C02F5F3F4F2430310509F0BACFF6
:1002100082B3E82BE2BB6F5F7F4F6430710509F05A
:10022000A0CF8FEF60960FB6F894DEBF0FBECDBFA4
:10023000DF91CF911F910F91FF90EF900895CF9292
:10024000DF92EF92FF920F931F936B017C010E944C
:1002500076039F7720E030E040E852E40E940204F9
:1002600020E030E044EB53E40E94CC0220E030E098
:1002700040E05FE30E9460020E943E038B019C010C
:100280001616170618061906D4F540E050E0BA0114
:10029000A3E01C141D041E041F0434F48091BA0052
:1002A0008F5F8093BA0005C08091BA00815080931F
:1002B000BA008091BA0084301CF01092BA0004C0D9
:1002C000882314F4A093BA0085B3E091BA000E2EEF
:1002D000000CFF0BEA54FF4F807F9081892B85BB78
:1002E0008FE39CE90197F1F700C000004F5F5F4F7B
:1002F0006F4F7F4F041715072607370751F685B351
:10030000807F85BB1F910F91FF90EF90DF90CF9082
:1003100008954F925F927F928F929F92AF92BF9279
:10032000CF92DF92EF92FF920F931F93CF932C0106
:100330000E949100C2010E94820080EC0E9449004C
:1003400011E0C12CD12C760177247394812C912C4F
:10035000A12CB12C0FEF0E949B00C82F8F3FD9F327
:100360008D33E9F18D3229F48DE20E945B00102F6C
:10037000F2CF80ED8C0F8A3010F58C2F0E945B003D
:10038000CC0CDD1CEE1CFF1CB701A601440F551F51
:10039000661F771F440F551F661F771FC40ED51E9B
:1003A000E61EF71E2C2F30E020533109C901330F10
:1003B000AA0BBB0BC80ED91EEA1EFB1ECCCFC33442
:1003C00051F60E949100C2010E94820080EC0E94BE
:1003D0004900172DC82CD92CEA2CFB2CBCCFA12FFF
:1003E000110FBB0BA70196010E947A04CF911F91B8
:1003F0000F91FF90EF90DF90CF90BF90AF909F90C4
:100400008F907F905F904F9008950E946D0084B30D
:100410008F6084BB0E94910084E80E94490080E7BD
:1004200090E00E9482002FEF81EE94E02150804006
:100430009040E1F700C000000E94910088E790E042
:100440000E9482000E949B008F3FE1F3813389F478
:100450008AE890E00E9489016B017C010E94910072
:1004600087E990E00E948200C701B6010E941F0147
:1004700016C08233A1F481EA90E00E9489016B01E9
:100480007C010E94910087E990E00E948200A8E62A
:10049000B1E0A70196010E946F040E941F010E9413
:1004A000910080EB90E00E9482002FEF81EE94E0BB
:1004B000215080409040E1F700C00000BDCF50586F
:1004C000BB27AA270E9477020C94C8030E94BA0394
:1004D00038F00E94C10320F039F49F3F19F426F44C
:1004E0000C94B7030EF4E095E7FB0C94B103E92FED
:1004F0000E94D90358F3BA17620773078407950758
:1005000020F079F4A6F50C94FB030EF4E0950B2E85
:10051000BA2FA02D0B01B90190010C01CA01A00155
:100520001124FF27591B99F0593F50F4503E68F1B0
:100530001A16F040A22F232F342F4427585FF3CFF1
:10054000469537952795A795F0405395C9F77EF4C2
:100550001F16BA0B620B730B840BBAF09150A1F00B
:10056000FF0FBB1F661F771F881FC2F70EC0BA0F91
:10057000621F731F841F48F4879577956795B79519
:10058000F7959E3F08F0B0CF9395880F08F0992714
:10059000EE0F9795879508950E94E0020C94C8038A
:1005A0000E94C10358F00E94BA0340F029F45F3F53
:1005B00029F00C94B10351110C94FC030C94B70373
:1005C0000E94D90368F39923B1F3552391F3951B46
:1005D000550BBB27AA2762177307840738F09F5F64
:1005E0005F4F220F331F441FAA1FA9F335D00E2ED1
:1005F0003AF0E0E832D091505040E695001CCAF73E
:100600002BD0FE2F29D0660F771F881FBB1F261700
:1006100037074807AB07B0E809F0BB0B802DBF01D7
:10062000FF2793585F4F3AF09E3F510578F00C94A6
:10063000B1030C94FC035F3FE4F3983ED4F386953A
:1006400077956795B795F7959F5FC9F7880F911DC7
:100650009695879597F90895E1E0660F771F881FB3
:10066000BB1F621773078407BA0720F0621B730B66
:10067000840BBA0BEE1F88F7E09508950E9445039E
:100680006894B1110C94FC0308950E94E10388F072
:100690009F5798F0B92F9927B751B0F0E1F0660F46
:1006A000771F881F991F1AF0BA95C9F714C0B13087
:1006B00091F00E94FB03B1E008950C94FB03672FB7
:1006C000782F8827B85F39F0B93FCCF386957795B6
:1006D0006795B395D9F73EF490958095709561959F
:1006E0007F4F8F4F9F4F0895E89409C097FB3EF4CA
:1006F00090958095709561957F4F8F4F9F4F99236F
:10070000A9F0F92F96E9BB279395F69587957795EC
:100710006795B795F111F8CFFAF4BB0F11F460FFAC
:100720001BC06F5F7F4F8F4F9F4F16C0882311F004
:1007300096E911C0772321F09EE8872F762F05C018
:10074000662371F096E8862F70E060E02AF09A95B3
:10075000660F771F881FDAF7880F9695879597F9A8
:10076000089597F99F6780E870E060E008959FEF33
:1007700080EC089500240A94161617061806090638
:10078000089500240A941216130614060506089507
:10079000092E0394000C11F4882352F0BB0F40F48F
:1007A000BF2B11F460FF04C06F5F7F4F8F4F9F4FCF
:1007B000089557FD9058440F551F59F05F3F71F051
:1007C0004795880F97FB991F61F09F3F79F08795B8
:1007D0000895121613061406551FF2CF4695F1DF41
:1007E00008C0161617061806991FF1CF86957105D1
:1007F000610508940895E894BB2766277727CB0105
:1008000097F908950E9415040C94C8030E94BA0336
:1008100038F00E94C10320F0952311F00C94B1032D
:100820000C94B70311240C94FC030E94D90370F3B9
:10083000959FC1F3950F50E0551F629FF001729F85
:10084000BB27F00DB11D639FAA27F00DB11DAA1F94
:10085000649F6627B00DA11D661F829F2227B00DE1
:10086000A11D621F739FB00DA11D621F839FA00D6C
:10087000611D221F749F3327A00D611D231F849FBC
:10088000600D211D822F762F6A2F11249F57504013
:100890009AF0F1F088234AF0EE0FFF1FBB1F661F8E
:1008A000771F881F91505040A9F79E3F510580F057
:1008B0000C94B1030C94FC035F3FE4F3983ED4F333
:1008C000869577956795B795F795E7959F5FC1F7FB
:1008D000FE2B880F911D9695879597F908950E9494
:1008E0008204A59F900DB49F900DA49F800D911D33
:1008F00011240895B7FF0C946F040E946F04821BAB
:10090000930B0895A29FB001B39FC001A39F700DE8
:10091000811D1124911DB29F700D811D1124911D07
:060920000895F894FFCFDA
:100926003738392F3435362A3132332D43303D2B83
:1009360057656C636F6D6500312D416E676C652080
:1009460020322D726F7461746500456E7465722075
:10095600416E676C653A004D6F76696E672E2E2E76
:1009660000456E74657220726F74206E756D3A0064
:0A097600446F6E6521000903060CB2
:00000001FF
